:06051B00040F00000000C7
:1004F5001204D3120003120402752900752A00752F
:0D0505002B137B007A00791B12001E80E989
:1004D3007580FFE5A0541F4480F5A053A01F1205AB
:1004E300127580F0E5A0541F4480F5A053A01F02AD
:0204F3000512F0
:080512007FA57E96DEFEDFFAF4
:01051A0022BE
:10040200E50E7067750E01120130AE07E50C6EFD48
:100412005EFBEEF45DF5268E0CEB601085120B850B
:10042200110A851009850F08FF1204ACE526600445
:10043200FF1204ACE50C6033C3E512950BFFE51126
:10044200950AFEE5109509FDE50F9508FCE47BE8A9
:100452007A03F9F8C3120279501185120B85110A39
:0B046200851009850F08AF0C1204ACD8
:01046D00226C
:1004AC00E4FE741C2EF8E6FD741B2EF8A6050EBE99
:1004BC0007F0EFC3940EEF5004242C80022433FF7A
:0604CC00741B2EF8A607C8
:0104D2002207
:03001B000202DD01
:1002DD00C0E0C0F0C083C082C0D075D000C000C0E7
:1002ED0001C002C003C004C005C006C007E512244A
:1002FD0001F512E43511F511E43510F510E4350F63
:10030D00F50F050EE50EB40A03750E00E47FE87EC9
:10031D0003FDFCAB12AA11A910A80FC3120279702C
:10032D0018F512F511F510F50F0525852580E5A0B9
:10033D00541F4480F5A053A01F7B007A007913ADA4
:10034D000D12046E050DE50DB40803750D00D007F3
:10035D00D006D005D004D003D002D001D000D0D02B
:09036D00D082D083D0F0D0E03240
:10000300538EBF53890F758DFC758B17C28FD28E9C
:05001300D2ABD2AF22C8
:06001E008B268A278928C9
:10002400E4F52DF52CE52CC39408400302012FAB15
:1000340026AA27A928852D8275830012022A120276
:100044008A00FC2000F72D008E3000933100983296
:10005400009D3300A23400A73500AC3600B1370050
:10006400B63800BB3900C04100C54200CA4300CFC6
:100074004400D44500D94600DE4800E34C00E84E75
:1000840000ED5000F255000000FC752EC0806C7528
:100094002EF98067752EA48062752EB0805D752E52
:1000A400998058752E928053752E82804E752EF845
:1000B4008049752E808044752E90803F752E8880EF
:1000C4003A752E838035752EC68030752EA1802B0F
:1000D400752E868026752E8E8021752E89801C753E
:1000E4002EC78017752EC88012752E8C800D752E24
:1000F400C18008752EBF8003752EFF852D82758300
:1001040000A3AB26AA27A92812022AB42E05532E2F
:100114007F052DAB29AA2AA92B852C82758300E59E
:0B0124002E120257052C052D020029A9
:01012F0022AD
:10046E007580FFE5A0541F44E0F5A053A01F740152
:10047E00A805088002C333D8FCF580E5A0541F44BC
:10048E00C0F5A053A01FAF058F8275830012022AFC
:0E049E00F580E5A0541F44E0F5A053A01F22F6
:10013000C2C4D2C2D2B5D2B4AFB07E00D2C4C2C2A1
:10014000EFC4F8540FC868FFEEC454F048FEE5B0A1
:10015000540FFDEF4DD2C2C2B5C4F8540FC868FFAA
:10016000EEC454F048FEE5B0540FFDEF4DD2B5C2D9
:10017000B4C4F8540FC868FFEEC454F048FEE5B0AC
:10018000540FFDEF4DF4FFEEF4FEEF8EF01202B0CF
:10019000021F0001021A00020215000402100008EA
:1001A000020B0010020600200201004001FC00804A
:1001B00001F7010001F2020001ED040001E808006E
:1001C00001E3100001DE200001D9400001D48000CD
:1001D00000000224752704804E7527058049752785
:1001E000068044752707803F752708803A752709E0
:1001F000803575270A803075270B802B75270C807A
:100200002675270D802175270E801C75270F8017F6
:100210007527108012752711800D752712800875BB
:0902200027138003E4F527AF2742
:0102290022B2
:0300000002037682
:0C037600787FE4F6D8FD75812E0203BDEF
:10022A00BB010CE58229F582E5833AF583E0225089
:10023A0006E92582F8E622BBFE06E92582F8E222D3
:0D024A00E58229F582E5833AF583E49322ED
:10025700F8BB010DE58229F582E5833AF583E8F0DD
:10026700225006E92582C8F622BBFE05E92582C889
:02027700F22271
:10027900EB9FF5F0EA9E42F0E99D42F0E89C45F0DB
:010289002252
:10028A00D083D082F8E4937012740193700DA3A303
:10029A0093F8740193F5828883E473740293686017
:0602AA00EFA3A3A380DF17
:1002B000D083D082F8E4937012740193700DA3A3DD
:1002C00093F8740193F5828883E473740293B5F014
:0D02D000067403936860E9A3A3A3A380D87C
:100382000204F5E493A3F8E493A34003F68001F298
:1003920008DFF48029E493A3F85407240CC8C3337C
:1003A200C4540F4420C8834004F456800146F6DF4B
:1003B200E4800B010204081020408090051BE47EBB
:1003C200019360BCA3FF543F30E509541FFEE49340
:1003D200A360010ECF54C025E060A840B8E493A307
:1003E200FAE493A3F8E493A3C8C582C8CAC583CA32
:1003F200F0A3C8C582C8CAC583CADFE9DEE780BEEA
:0105210000D9
:00000001FF
