:0B0971002573003435360030303000B4
:08098500022F00000231000006
:10074200783E7C007D007BFF7A0979747E007F040D
:1007520012044A78427C007D007BFF7A0979787E18
:10076200007F0412044A1208E51209247B007A0071
:10077200793E754A03E4FD12081012097C7B007A67
:10078200007942754A03E4FD1207BC7549FF754AB8
:1007920009754B71754C00754D00754E427B007AA0
:1007A20000793312007A754900754A00754B277B30
:0A07B200007A00793312052080D18F
:1008E5007580FFE5A0541F4480F5A053A01F120991
:1008F5007C7580F0E5A0541F4480F5A053A01F022D
:02090500097C6B
:08097C007FA57E96DEFEDFFA86
:010984002250
:03001B000206BE1C
:1006BE00C0E0C0F0C083C082C0D075D000C000C002
:1006CE0001C002C003C004C005C006C0070530E566
:1006DE00307002052FB4E82CE52FB40327752F00D8
:1006EE00753000053D853280E5A0541F4480F5A08D
:1006FE0053A01F0532E53270020531F44531700406
:10070E00F531F5327B007A007927AD2212085405B7
:10071E0022E522B40803752200D007D006D005D0FA
:10072E0004D003D002D001D000D0D0D082D083D05C
:04073E00F0D0E032E5
:10092400538EBF53890F758DFC758B17C28FD28E72
:05093400D2ABD2AF229E
:060520008B468A47894862
:10052600E4F54DF54CE54CC394084003020631ABA7
:1005360046AA47A948854D8275830012048912048C
:10054600EA05FE2005F92D059030059531059A320C
:10055600059F3305A43405A93505AE3605B3370521
:10056600B83805BD3905C24105C74205CC4305D19A
:100576004405D64505DB4605E04805E54C05EA4E4B
:1005860005EF5005F455000005FE754EC0806C75EC
:100596004EF98067754EA48062754EB0805D754ECB
:1005A600998058754E928053754E82804E754EF8DE
:1005B6008049754E808044754E90803F754E888088
:1005C6003A754E838035754EC68030754EA1802BA8
:1005D600754E868026754E8E8021754E89801C75D7
:1005E6004EC78017754EC88012754E8C800D754E9D
:1005F600C18008754EBF8003754EFF854D82758399
:1006060000A3AB46AA47A948120489B42E05534E47
:100616007F054DAB49AA4AA94B854C82758300E5F7
:0B0626004E1204C8054C054D02052BC8
:0106310022A6
:100854007580FFE5A0541F44E0F5A053A01F740168
:10086400A805088002C333D8FCF580E5A0541F44D2
:10087400C0F5A053A01FAF058F82758300120489B1
:0E088400F580E5A0541F44E0F5A053A01F220C
:04095900D2A07F05A4
:08095D0000AE071FEE70F92245
:1007BC008B468A4789488D4912094A7FA0120892B4
:1007CC00120939AF4912089212093912094A7FA14C
:1007DC00120892120939AF4A154AEF602412090720
:1007EC00AB460548E548AA477002054714F9EF12D5
:1007FC0004B6E54A6004C2008002D20012000380F5
:04080C00D5020965A3
:100810008B468A4789488D4912094A7FA01208925F
:10082000120939AF49120892120939AF4A154AEF35
:10083000601FAB460548E548AA477002054714F912
:10084000120470FF1208921209397FC812095D80E4
:04085000DA0209655A
:0F094A00D2A1120959C2A17F0512095DC2A022D4
:0C096500C2A1120959D2A17F0502095D50
:10000300C2A0A20092A17F0512095D120959C2A0E4
:07001300D2A17F0502095D87
:10093900120959A2A19200C2A07F0512095DA20065
:01094900228B
:02089200AD07B0
:10089400E4FCC2A07F0512095DED30E704D2A1801B
:1008A40002C2A17F0512095DD2A0ED25E0FD7F05FE
:0908B40012095D0CBC08DBC2A0B6
:0108BD002218
:10090700E4FC120959ED25E0FD30A103430501C2BE
:0C091700A07F0512095D0CBC08E8AF05CC
:0109230022B1
:03000000020632C3
:0C063200787FE4F6D8FD75815902067946
:10037A00E709F608DFFA8046E709F208DFFA803E65
:10038A0088828C83E709F0A3DFFA8032E309F60852
:10039A00DFFA8078E309F208DFFA807088828C83BA
:1003AA00E309F0A3DFFA806489828A83E0A3F6086E
:1003BA00DFFA805889828A83E0A3F208DFFA804C48
:1003CA0080D280FA80C680D4806980F2803380101F
:1003DA0080A680EA809A80A880DA80E280CA803388
:1003EA0089828A83ECFAE493A3C8C582C8CCC58300
:1003FA00CCF0A3C8C582C8CCC583CCDFE9DEE780D0
:10040A000D89828A83E493A3F608DFF9ECFAA9F04E
:10041A00EDFB2289828A83ECFAE0A3C8C582C8CCA4
:10042A00C583CCF0A3C8C582C8CCC583CCDFEADEBD
:10043A00E880DB89828A83E493A3F208DFF980CC1F
:10044A0088F0EF60010E4E60C388F0ED2402B40418
:10045A000050B9F582EB2402B4040050AF232345BF
:06046A0082239003CA7317
:10047000BB010689828A83E0225002E722BBFE028A
:09048000E32289828A83E49322BD
:10048900BB010CE58229F582E5833AF583E0225028
:1004990006E92582F8E622BBFE06E92582F8E22272
:0D04A900E58229F582E5833AF583E493228C
:1004B600BB010689828A83F0225002F722BBFE0125
:0204C600F3221F
:1004C800F8BB010DE58229F582E5833AF583E8F06A
:1004D800225006E92582C8F622BBFE05E92582C816
:0204E800F222FE
:1004EA00D083D082F8E4937012740193700DA3A3A1
:1004FA0093F8740193F5828883E4737402936860B5
:06050A00EFA3A3A380DFB4
:10001E00E5552449F8E60555227846300702784919
:10002E00E475F0011205100204702000EB7F2ED251
:10003E00008018EF540F2490D43440D4FF30040BBA
:10004E00EF24BFB41A0050032461FFE55660021579
:10005E00560559E5597002055830070D7846E47576
:10006E00F001120510EF0204B60208BE7403D207A7
:10007E008003E4C207F5558B468A478948E4F55656
:10008E00F558F559E55660077F2012005980F57531
:10009E0057FFC201C200C202C203C205C206C20895
:1000AE00120027FF700D3007057F0012006AAF594E
:1000BE00AE5822B4255FC2D5C204120027FF24D049
:1000CE00B40A00501A75F00A785630D50508B6FFF6
:1000DE000106C6A426F620D5047002D20380D924C8
:1000EE00CFB41A00EF5004C2E5D20402026AD20164
:1000FE0080C6D20080C0D20280BCD2D580BAD205D2
:10010E0080B47F201200592002077401B5560040BA
:10011E00F112001EFF120059020092D208D2068080
:10012E009512001EFB12001EFA12001EF94A4B70A9
:10013E0006793B7A037BFF20022EE556602A7E006D
:10014E008E8275830012048960060EEE655770F07C
:10015E00C2D5EBC0E0EAC0E0E9C0E0EE1202B1D0D9
:10016E00E0F9D0E0FAD0E0FB120470FF60AAEBC019
:10017E00E0EAC0E0E9C0E0120059D0E02401F9D075
:10018E00E03400FAD0E0FBE5570460DCD557D980A7
:10019E00877BFF7A0279ADD202809C79108002793A
:1001AE0008C206C2088008D2D5790A8004790AC22C
:1001BE00D5E557047002F557E4FAFDFEFF12001E56
:1001CE00FC7B0820011312001EFD7B1030000A126A
:1001DE00001EFE12001EFF7B20EC3382D592D550FE
:1001EE0013C3E43000069FFFE49EFEE42001039D4E
:1001FE00FDE49CFCE4CBF8C201EC700CCFCECDCC70
:10020E00E824F8F870F38017C3EF33FFEE33FEEDFA
:10021E0033FDEC33FCEB33FB994002FB0FD8E9EBDB
:10022E00300105F8D0E0C448B201C0E00AEC4D4EF2
:10023E004F78207B0070C2EAB5570040BCC0E01278
:10024E0002B3D0F0D0E0200104C4C0E0C4B201C0BB
:10025E00F0120042D0F0D5F0EB0200921204EA0147
:10026E002F5301A95801004C00FC4201AD4F01B5BE
:0F027E004401B54901154301BB55019F46019F3E
:10028D0045019F47035B5001042D01082E012B2BC7
:10029D00010C2301292003442A00C4480000012336
:1002AD003F3F3F00790AA2D5200314300509B9104C
:1002BD00020404B9080104A2D5200602500104204D
:1002CD0002689202B556005034C0E07F2030031909
:1002DD007F30A20272067205500F12030AC202C2CB
:1002ED0006C205C2087F30800F300503E9C0E01259
:1002FD000059300503D0E0F9D0E0B556CC300517E4
:10030D007F30B9100C1200597F583004077F788068
:10031D0003B908031200593002057F2D0200597FE1
:10032D00202008F87F2B2006F322920280CF286E22
:10033D00756C6C2900D20112001E3001F8C20178D3
:10034D005630D50108F60200C42D5043495812000D
:10035D001E2403B405004001E49003569312004A95
:0D036D00743A12004AD2037556040201A929
:10063E00020742E493A3F8E493A34003F68001F289
:10064E0008DFF48029E493A3F85407240CC8C333BD
:10065E00C4540F4420C8834004F456800146F6DF8C
:10066E00E4800B0102040810204080900985E47E8E
:10067E00019360BCA3FF543F30E509541FFEE49381
:10068E00A360010ECF54C025E060A840B8E493A348
:10069E00FAE493A3F8E493A3C8C582C8CAC583CA73
:1006AE00F0A3C8C582C8CAC583CADFE9DEE780BE2B
:01098D000069
:10051000FAE6FB0808E6F925F0F618E6CA3AF622EC
:1008BE00EFB40A07740D1208C9740A309811A8997A
:1008CE00B8130CC2983098FDA899C298B811F6309A
:0708DE0099FDC299F5992272
:00000001FF
