:030000000206EC09
:0C06EC00787FE4F6D8FD7581200207330A
:100880003F065B4F666D7D077F6F777C395E7971C0
:100890000040761E7038375C733E783D6750376E87
:1008A000BF86DBCFE6EDFD87FFEF46770102040848
:0408B0001020408054
:1009670008120000000000000000011C0001080040
:09097700011D19010C01010F0121
:1009B100538EBF53890F758B18758DFCC28FD28EE4
:0509C100D2ABD2AF2211
:03001B000207DCFD
:1007DC00C0E0C083C082C0D075D000C000C006C0CD
:1007EC00070511E51170020510FFAE10BE2709BFF9
:1007FC001006751000751100E51C9008AC93F5807F
:10080C0075A0C075A0007412251CF8E690088093A2
:10081C00F4F58075A0E075A000051CE51CB4080378
:10082C00751C00D007D006D000D0D0D082D083D099
:02083C00E032A8
:1007780012052DE51A6FFE5FFDEFF45E8F1A640413
:100788007033E50F045403F50F7002050FAF0F74B3
:1007980001A807088002C333D8FCF4F58075A0804F
:1007A800E4F5A0E50FB4030DE50C60097580F67556
:1007B800A080E4F5A0E50FB4020ABD0802151DBD2E
:1007C8000902051DBD050CE50CB40104750C0222D7
:0307D800750C019C
:0107DB0022FB
:10062700E50F6401705175120C7513107514107570
:100637001510AE09AF0A7C037DE812038D8F16AE45
:1006470009AF0A7C007D6412038D7C007D0A1203CA
:100657008DED2420F517AE09AF0A7C007D0A120341
:100667008D7C007D0A12038D8D18AE09AF0A7C00C0
:100677007D0A12038D8D19E50FB4022375121875C3
:100687001310751410751510751610751710E51DD4
:1006970075F00A84F518E51D75F00A8485F019E5EB
:1006A7000F6403703F75122B7513107514107515B1
:1006B70010751610AE0DAF0EFC7D6412038DEF247E
:1006C70020F517AE0DAF0E7C007D0A12038D7C005E
:1006D7007D0A12038D8D18AE0DAF0E7C007D0A12B8
:0506E700038D8D1922B6
:10041D001209B1AF0F7401A807088002C333D8FCCD
:10042D00F4F58075A080E4F5A0AE10AF117C007DD1
:10043D000A12038DED4C7003120778AE10AF117CCC
:10044D00007D6412038DED4C700712083E8E098FEE
:10045D000AAE10AF117C007D6412038DED4C60036C
:10046D00020527E50F64036003020527E50CB401BF
:10047D001EE51D75F064A4FFC3E50A9FE50995F01F
:10048D005007E4F50DF50E8006750D01750EF4E5BA
:10049D000C64027063AE09AF0AFC7D6412038DC358
:1004AD00EF9414EE94005008750D00750E6480489D
:1004BD00D3EF9428EE94004008750D01750E9080D1
:1004CD0037AC09AD0AE41202C17B9A7A9979197891
:1004DD003E120116E4FBFA79C8784212021FE4FBC2
:1004ED00FAF978C0120025E4FBFA79C878421201B6
:1004FD00161202FA8E0D8F0EAC0DAD0EE41202C166
:10050D00E4FBFA79FA784312021FE4FBFA797F785B
:10051D00431201161202FA120907120627020436B7
:100907008F1ED2AF1209D77F901208B41209C67F83
:10091700401208B41209C6AF1E1208B41209C61253
:0509270009F2C2AF223D
:0409E600D2A07F32EA
:0809EA0000AE071FEE70F922B8
:0F09D700D2A11209E6C2A17F321209EAC2A02200
:0C09F200C2A11209E6D2A17F320209EA7C
:10000300C2A0A20092A17F321209EA1209E6C2A09D
:07001300D2A17F320209EACD
:1009C6001209E6A2A19201C2A07F321209EAA2018F
:0109D60022FE
:0208B400AD078E
:1008B600E4FCC2A07F321209EAED30E704D2A1803F
:1008C60002C2A17F321209EAD2A0ED25E0FD7F32F5
:0908D6001209EA0CBC08DBC2A007
:0108DF0022F6
:10094A00E4FC1209E6ED25E0FD30A103430501C2EE
:0C095A00A07F321209EA0CBC08E8AF05CF
:01096600226E
:10083E001208E07FCC12092C7F4412092C7FC87E4F
:10084E000012099F1208E07FCC12092C7FBE1209FC
:10085E002C1209818F1E120981EFFEE51EFFFDACE1
:10086E0006E41202C1E4FBFA79C8784012011602BE
:02087E0002FA7C
:04099B007F057E0056
:10099F007C007D0C12037BEF1FAC0670011E4C70A8
:0209AF00F6222E
:02092C00AB0717
:10092E00E4FAC294EB13929412099BD294EBC31384
:0C093E00FB0ABA08ED7F057E0002099F4D
:10098100E4FAC294EBC313FBD29430940343038083
:0909910012099B0ABA08EBAF033E
:01099A00223A
:1008E000C201D2947F0C7E0012099FC2947F507E79
:1008F0000012099FD2947F0A7E0012099FA294924F
:060900000112099BA20197
:0109060022CE
:10052D00C2C4D2C2D2B5D2B4AFB07E00D2C4C2C2A0
:10053D00EFC4F8540FC868FFEEC454F048FEE5B0A0
:10054D00540FFDEF4DD2C2C2B5C4F8540FC868FFA9
:10055D00EEC454F048FEE5B0540FFDEF4DD2B5C2D8
:10056D00B4C4F8540FC868FFEEC454F048FEE5B0AB
:10057D00540FFDEF4DF4FFEEF4FEEF8EF01203F08D
:10058D00061C00010617000206120004060D0008E5
:10059D00060800100603002005FE004005F9008046
:1005AD0005F4010005EF020005EA040005E5080069
:1005BD0005E0100005DB200005D6400005D18000C8
:1005CD0000000621751B04804E751B058049751BA7
:1005DD00068044751B07803F751B08803A751B0903
:1005ED008035751B0A8030751B0B802B751B0C809D
:1005FD0026751B0D8021751B0E801C751B0F80171A
:10060D00751B108012751B11800D751B12800875DE
:09061D001B138003E4F51BAF1B65
:0106260022B1
:10001E00020366E86480F8E933E83360110460F0A7
:10002E00ED33EC337009E8FCE9FDEAFEEBFF220448
:10003E0060DED3EB9FEA9EE99DE8C2E78CF0C2F743
:10004E0095F0400CE8CCF8E9CDF9EACEFAEBCFFB0F
:10005E0012033185D0F05804700320D5B3E8047034
:10006E00075002B2D502037092D5EC0460F7E4CCCF
:10007E00C0E0C398F8603B94186008400DD0E0FBD8
:10008E00020348E4FBFAC9FC8028E830E406E4C920
:10009E00FBE4CAFCE830E305E4C9CACBFCE854072C
:1000AE006010F8C3E913F9EA13FAEB13FBEC13FC37
:1000BE00D8F130F52FC3E49CFCEF9BFFEE9AFEEDDA
:1000CE0099FDD0E0FBEF4E4D4C701222DB03020384
:1000DE006DEC2CFCEF33FFEE33FEED33FDED30E730
:1000EE00EB020348EF2BFFEE3AFEED39FDD0E0FBBD
:1000FE0050130BBB0003020370ED13FDEE13FEEF66
:08010E0013FFEC13FC0203488F
:10011600EC4D6011E8497017ED33EC3304600DE4E3
:10012600FCFFFEFD22E933E8330470F80203661291
:10013600033158046009E4CC248150062850090292
:10014600037028400302036DC0E0EB4A7044B98097
:1001560006D0E0FB02035CEF4E701CBD8008EBFF8F
:10016600EAFEE9FD80EBE98DF0A4FEE5F00201FF71
:10017600E9CDF9EAFEEBFFEF89F0A4FCE5F0CE89C4
:10018600F0A42EFFE435F0CD89F0A42DFEE435F081
:100196008067EF4E7005BD80D780C3EF8BF0A4ACAF
:1001A600F0EE8BF0A42CFCE435F0F8EF8AF0A42CEA
:1001B600E5F038FCE433CB8DF0A42CFCE5F03BF8FD
:1001C600EE8AF0A42CFCE5F038F8E433CF89F0A4ED
:1001D6002CFCE5F038CF3400CE89F0A42FFFE5F0F3
:1001E6003EFEE433C98DF0A42EFEE5F039CD8AF04B
:1001F600A42FFFE5F03EFEE43DFD33D0E0FB5007C3
:100206000BBB000F020370EC2CFCEF33FFEE33FE4A
:06021600ED33FD02034878
:10021C00020370EC5D046005E85904700302036688
:10022C00120331580460F6EC4860F2EC7004FDFEE9
:10023C00FF22C860DB2481C85009C39860025006B5
:10024C0002036D9850CAF582E9294B4A7005AB82BE
:10025C0002035C75F0007C1A7880C3EF9BEE9AED7C
:10026C0099400DC3EF9BFFEE9AFEED99FDE842F02D
:10027C00DC23ACF0D0E0FFD0E0FED0E0FDAB822080
:10028C00E7101BEB60BAEC2CFCEF33FFEE33FEED0A
:10029C0033FD020348E803F830E705C0F075F000C1
:1002AC00EF2FFFEE33FEED33FD40B830E7C280AAEE
:1002BC0075F020800E75F010800575F0087D007EBD
:1002CC00007F003392D530D5031203E2EC3340109B
:1002DC00EF33FFEE33FEED33FDEC33FCD5F0ED22C6
:0E02EC00E5F0247EA2D513CC92E7CDCEFF2202
:1002FA00EDD2E7CD33EC3392D524814006E4FFFEFC
:10030A00FDFC22FCE4CFCECDCC24E0501174FF805A
:10031A00EDC3CC13CCCD13CDCE13CECF13CF0470F7
:07032A00F030D5DE0203E212
:10033100E9D2E7C933E833F892D5EDD2E7CD33EC12
:0703410033FC5002B2D5228B
:10034800EC30E7100FBF000C0EBE00080DBD000416
:100358000BEB6014A2D5EB13FCED92E7FD2274FFC2
:10036800FCFDFEFF22E480F8A2D574FF13FC7D801B
:03037800E480EF2F
:1006F80002041DE493A3F8E493A34003F68001F2F7
:1007080008DFF48029E493A3F85407240CC8C33302
:10071800C4540F4420C8834004F456800146F6DFD1
:10072800E4800B0102040810204080900967E47EF1
:10073800019360BCA3FF543F30E509541FFEE493C6
:10074800A360010ECF54C025E060A840B8E493A38D
:10075800FAE493A3F8E493A3C8C582C8CAC583CAB8
:10076800F0A3C8C582C8CAC583CADFE9DEE780BE70
:010980000076
:10037B00EF8DF0A4A8F0CF8CF0A428CE8DF0A42E96
:02038B00FE2250
:10038D00BC000BBE0029EF8DF084FFADF022E4CC54
:10039D00F875F008EF2FFFEE33FEEC33FCEE9DEC1D
:1003AD00984005FCEE9DFE0FD5F0E9E4CEFD22ED63
:1003BD00F8F5F0EE8420D21CFEADF075F008EF2FAD
:1003CD00FFED33FD4007985006D5F0F222C398FD9E
:0503DD000FD5F0EA223B
:0E03E200C3E49FFFE49EFEE49DFDE49CFC222C
:1003F000D083D082F8E4937012740193700DA3A39C
:1004000093F8740193F5828883E473740293B5F0D2
:0D041000067403936860E9A3A3A3A380D83A
:00000001FF
