:1009AD003120253036750032202530326425303225
:0609BD00642530326400E5
:0E09EB000137010342173B32042B00000000CD
:1000030012096F1209C37B007A0079421208101299
:0700130009191207B080F883
:10096F007580FFE5A0541F4480F5A053A01F120906
:10097F00FA7580F0E5A0541F4480F5A053A01F0224
:02098F0009FA63
:0809FA007FA57E96DEFEDFFA08
:010A020022D1
:10091900E52A702A752A0112048CE5266F5FFE8F7D
:1009290026BE040A0537E537B40203E4F537E5378F
:0E09390004F580E5A0541F4480F5A053A01FD4
:01094700228D
:1007B000E52A705B752A01E53714601404703E75F4
:1007C0000BFF750C09750DAD750E0085450F802466
:1007D0007B007A007942120862750BFF750C09756F
:1007E0000DB4750E0085420F75100085431175120A
:1007F000008544137B007A00793812007A750B006B
:10080000750C00750D2F7B007A00793812037A225F
:03001B0002067466
:10067400C0E0C0F0C083C082C0D075D000C000C04C
:1006840001C002C003C004C005C006C007E52E2493
:1006940001F52EE4352DF52DE4352CF52CE4352B20
:1006A400F52B052AE52AB40A03752A000528E5284E
:1006B40070020527FFAE27BE0109BFF406752700A7
:1006C400752800E47FE87E03FDFCAB2EAA2DA92C3F
:1006D400A82BC31206007018F52EF52DF52CF52B5A
:1006E4000545854580E5A0541F4480F5A053A01F0F
:1006F4007B007A00792FAD291208A70529E529B4D2
:100704000803752900D007D006D005D004D003D043
:1007140002D001D000D0D0D082D083D0F0D0E0324B
:1009C300538EBF53890F758DFC758B17C28FD28ED3
:0509D300D2ABD2AF22FF
:06037A008B088A09890AC4
:10038000E4F50FF50EE50EC39408400302048BABB1
:1003900008AA09A90A850F8275830012059F120613
:1003A0001104582004532D03EA3003EF3103F432D3
:1003B00003F93303FE34040335040836040D37040F
:1003C0001238041739041C41042142042643042B2B
:1003D00044043045043546043A48043F4C04444E36
:1003E000044950044E55000004587510C0806C75C7
:1003F00010F980677510A480627510B0805D75106B
:100400009980587510928053751082804E7510F83F
:1004100080497510808044751090803F75108880E9
:100420003A75108380357510C680307510A1802B09
:10043000751086802675108E8021751089801C7538
:1004400010C780177510C8801275108C800D75103C
:10045000C180087510BF80037510FF850F827583FA
:1004600000A3AB08AA09A90A12059FB42E055310D0
:100470007F050FAB0BAA0CA90D850E82758300E5D5
:0B048000101205DE050E050F020385BB
:01048B00224E
:1008A7007580FFE5A0541F44E0F5A053A01F740115
:1008B700A805088002C333D8FCF580E5A0541F447F
:1008C700C0F5A053A01FAF058F8275830012059F47
:0E08D700F580E5A0541F44E0F5A053A01F22B9
:10048C00C2C4D2C2D2B5D2B4AFB07E00D2C4C2C242
:10049C00EFC4F8540FC868FFEEC454F048FEE5B042
:1004AC00540FFDEF4DD2C2C2B5C4F8540FC868FF4B
:1004BC00EEC454F048FEE5B0540FFDEF4DD2B5C27A
:1004CC00B4C4F8540FC868FFEEC454F048FEE5B04D
:1004DC00540FFDEF4DF4FFEEF4FEEF8EF0120637E5
:1004EC00057B00010576000205710004056C00080F
:1004FC000567001005620020055D0040055800806E
:10050C0005530100054E020005490400054408008E
:10051C00053F1000053A20000535400005308000ED
:10052C0000000580750804804E7508058049750823
:10053C00068044750807803F750808803A750809DD
:10054C00803575080A803075080B802B75080C8077
:10055C002675080D802175080E801C75080F8017F4
:10056C007508108012750811800D750812800875B9
:09057C0008138003E4F508AF0840
:010585002253
:1009D800E4FEC297EF1392A3EFC313FFD2970EBEA4
:0209E80008F015
:0109EA0022EA
:0809910075F00A84E5F02EFD6B
:10099900C29300C29700D293001209D8AF05120979
:0409A900D8C29322FB
:1008E500E4FDC29300C29700D293001209D8E4FF39
:1008F500C297EDC313FD30A303430580D2970FBF05
:1009050008EEC29300C29700D29700C2A300D2A3FB
:0309150000AF052B
:0109180022BC
:10081000E4FD7F8E120999120586FF75F00A84C4E3
:1008200054F0FEEF7F8412099190000112059FFFA2
:1008300075F00A84C454F0FEEF7F82120991900093
:100840000212059FFF75F00A84C454F0FEEF75F0A4
:100850000A84E5F02EFD7F801209997D807F8E024B
:020860000999F4
:100862007F851208E5EFC4540F75F00AA4FEEF5419
:100872000F2E1205CC7F831208E5EFC4540F75F0DA
:100882000AA4FEEF540F2E9000011205DE7F8112A2
:1008920008E5EFC4540F75F00AA4FEEF540F2E9032
:0508A20000020205DE6A
:03000000020724D0
:0C072400787FE4F6D8FD75814502076B74
:10058600BB010689828A83E0225002E722BBFE0273
:09059600E32289828A83E49322A6
:10059F00BB010CE58229F582E5833AF583E0225011
:1005AF0006E92582F8E622BBFE06E92582F8E2225B
:0D05BF00E58229F582E5833AF583E4932275
:1005CC00BB010689828A83F0225002F722BBFE010E
:0205DC00F32208
:1005DE00F8BB010DE58229F582E5833AF583E8F053
:1005EE00225006E92582C8F622BBFE05E92582C8FF
:0205FE00F222E7
:10060000EB9FF5F0EA9E42F0E99D42F0E89C45F050
:0106100022C7
:10061100D083D082F8E4937012740193700DA3A378
:1006210093F8740193F5828883E47374029368608C
:06063100EFA3A3A380DF8C
:10063700D083D082F8E4937012740193700DA3A352
:1006470093F8740193F5828883E473740293B5F089
:0D065700067403936860E9A3A3A3A380D8F1
:10001E00E517240BF8E60517227808300702780B4F
:10002E00E475F0011206640205862000EB7F2ED2E5
:10003E00008018EF540F2490D43440D4FF30040BBA
:10004E00EF24BFB41A0050032461FFE518600215B7
:10005E0018051BE51B7002051A30070D7808E475AC
:10006E00F001120664EF0205CC0209487403D207B0
:10007E008003E4C207F5178B088A09890AE4F5188C
:10008E00F51AF51BE51860077F2012005980F575EB
:10009E0019FFC201C200C202C203C205C206C208D3
:1000AE00120027FF700D3007057F0012006AAF1B8C
:1000BE00AE1A22B4255FC2D5C204120027FF24D087
:1000CE00B40A00501A75F00A781830D50508B6FF34
:1000DE000106C6A426F620D5047002D20380D924C8
:1000EE00CFB41A00EF5004C2E5D20402026AD20164
:1000FE0080C6D20080C0D20280BCD2D580BAD205D2
:10010E0080B47F201200592002077401B5180040F8
:10011E00F112001EFF120059020092D208D2068080
:10012E009512001EFB12001EFA12001EF94A4B70A9
:10013E0006793B7A037BFF20022EE518602A7E00AB
:10014E008E8275830012059F60060EEE651970F0A3
:10015E00C2D5EBC0E0EAC0E0E9C0E0EE1202B1D0D9
:10016E00E0F9D0E0FAD0E0FB120586FF60AAEBC002
:10017E00E0EAC0E0E9C0E0120059D0E02401F9D075
:10018E00E03400FAD0E0FBE5190460DCD519D98023
:10019E00877BFF7A0279ADD202809C79108002793A
:1001AE0008C206C2088008D2D5790A8004790AC22C
:1001BE00D5E519047002F519E4FAFDFEFF12001ED2
:1001CE00FC7B0820011312001EFD7B1030000A126A
:1001DE00001EFE12001EFF7B20EC3382D592D550FE
:1001EE0013C3E43000069FFFE49EFEE42001039D4E
:1001FE00FDE49CFCE4CBF8C201EC700CCFCECDCC70
:10020E00E824F8F870F38017C3EF33FFEE33FEEDFA
:10021E0033FDEC33FCEB33FB994002FB0FD8E9EBDB
:10022E00300105F8D0E0C448B201C0E00AEC4D4EF2
:10023E004F78207B0070C2EAB5190040BCC0E012B6
:10024E0002B3D0F0D0E0200104C4C0E0C4B201C0BB
:10025E00F0120042D0F0D5F0EB020092120611011E
:10026E002F5301A95801004C00FC4201AD4F01B5BE
:0F027E004401B54901154301BB55019F46019F3E
:10028D0045019F47035B5001042D01082E012B2BC7
:10029D00010C2301292003442A00C4480000012336
:1002AD003F3F3F00790AA2D5200314300509B9104C
:1002BD00020404B9080104A2D5200602500104204D
:1002CD0002689202B518005034C0E07F2030031947
:1002DD007F30A20272067205500F12030AC202C2CB
:1002ED0006C205C2087F30800F300503E9C0E01259
:1002FD000059300503D0E0F9D0E0B518CC30051722
:10030D007F30B9100C1200597F583004077F788068
:10031D0003B908031200593002057F2D0200597FE1
:10032D00202008F87F2B2006F322920280CF286E22
:10033D00756C6C2900D20112001E3001F8C20178D3
:10034D001830D50108F60200C42D5043495812004B
:10035D001E2403B405004001E49003569312004A95
:0D036D00743A12004AD2037518040201A967
:10073000020003E493A3F8E493A34003F68001F2DC
:1007400008DFF48029E493A3F85407240CC8C333CA
:10075000C4540F4420C8834004F456800146F6DF99
:10076000E4800B01020408102040809009EBE47E35
:10077000019360BCA3FF543F30E509541FFEE4938E
:10078000A360010ECF54C025E060A840B8E493A355
:10079000FAE493A3F8E493A3C8C582C8CAC583CA80
:1007A000F0A3C8C582C8CAC583CADFE9DEE780BE38
:0109F90000FD
:10066400FAE6FB0808E6F925F0F618E6CA3AF62297
:10094800EFB40A07740D120953740A309811A89964
:10095800B8130CC2983098FDA899C298B811F6300F
:0709680099FDC299F59922E7
:00000001FF
