:03000000020443B4
:0C044300787FE4F6D8FD75812302048A5E
:10027500C2C4D2C2D2B5D2B4AFB07E00D2C4C2C25B
:10028500EFC4F8540FC868FFEEC454F048FEE5B05B
:10029500540FFDEF4DD2C2C2B5C4F8540FC868FF64
:1002A500EEC454F048FEE5B0540FFDEF4DD2B5C293
:1002B500B4C4F8540FC868FFEEC454F048FEE5B066
:1002C500540FFDEF4DF4FFEEF4FEEF8EF0120248F1
:1002D50003640001035F0002035A0004035500088C
:1002E50003500010034B00200346004003410080EB
:1002F500033C01000337020003320400032D08000C
:100305000328100003232000031E4000031980006A
:1003150000000369752104804E752105804975210A
:10032500068044752107803F752108803A752109AB
:10033500803575210A803075210B802B75210C8045
:100345002675210D802175210E801C75210F8017C2
:100355007521108012752111800D75211280087587
:0903650021138003E4F521AF210E
:01036E00226C
:1007EC003F065B4F666D7D077F6F777C395E797155
:1007FC000040761E7038375C733E783D6750376E1C
:10080C00BF86DBCFE6EDFD87FFEF46010204081043
:03081C00204080F9
:10081F00011B00010E00011C17020F00000209004E
:10082F000008120000000000000000010B01010C85
:07083F0000010D00011A0188
:1008BC00438E805389F0758A20758CD1C28DD28C71
:0508CC00D2A9D2AF2209
:03000B0002068961
:10068900C0E0C083C082C0D075D000C0000510E5AD
:10069900107002050FB4100BE50FB42706750F0093
:1006A900751000E51B90081793F58075A0C075A01B
:1006B900007412251BF8E69007EC93F4F58075A0F9
:1006C900E075A000051BE51BB40803751B00D000ED
:0906D900D0D0D082D083D0E032F1
:10036F00E50E7042751219E50E04F513751410752C
:10037F001510751610AE09AF0A7C007D641201E5E9
:10038F008F17AE09AF0A7C007D0A1201E57C007D54
:10039F000A1201E5ED2420F518AE09AF0A7C007DA5
:1003AF000A1201E58D19E50E6401705FE50C602BF3
:1003BF00751219E50E04F513751410E51F75F00A83
:1003CF0084F515E51F75F00A8485F016751711E58C
:1003DF001D75F00A84F518E51D8029751219E50EB3
:1003EF0004F513751410E51E75F00A84F515E51E56
:1003FF0075F00A8485F016751711E51F75F00A84DC
:10040F00F518E51F75F00A8485F019E50EB402237F
:10041F0075121904F51375141075151075161075DE
:10042F001710E51C75F00A84F518E51C75F00A84A1
:04043F0085F0192209
:1005B900120275E51A6FFE5FF511EFF45EF5088F0B
:1005C9001AE5116002F512E511B40C0B050EE50EE2
:1005D90075F0038485F00EE511B40D0DE50BB4013A
:1005E90005E4F50B8003750B01E50EB40207E5116F
:1005F900B41002051CE50EB40207E511B411021589
:100609001CE50EB40108E511B41103750C01E50EE2
:0B061900B40108E508B41103E4F50C7F
:0106240022B3
:1006E2007BFFC2AF7580FF75A080E4F5A0D2AFE5B5
:1006F2001F700EE51DC394004007E51D94055001CF
:100702001BE50B60035303FDE50DB40112AE0FAF01
:10071200107C007D641201E5ED4C70035303FBC2B3
:0B072200AF8B8075A080E4F5A0D2AF83
:01072D0022A9
:1004CF00E50B6401703AAE09AF0AFC7D0A1201E533
:1004DF00AD1C7C00C3EF9DEE9C4010C2AF75801029
:1004EF0075A0A0E4F5A0750D01D2AFC3EF9DEE9CF2
:1004FF00500EC2AFE4F58075A0A0F5A0F50DD2AFF8
:10050F00E50B7030E51F701EE51DC394004017E525
:10051F001D94055011C2AF75801075A0A0E4F5A011
:10052F00750D01D2AF22C2AFE4F58075A0A0F5A082
:05053F00F50DD2AF2212
:10054400C2AFE4F58075A0A0F5A0F50DD2AF1207F7
:100554002E8E098F0A1208BC7B377D3B7F0C120656
:10056400251206E212036FAE0FAF107C007D0A1253
:1005740001E5ED4C70031205B9AE0FAF107C017D9F
:10058400F41201E5ED4C700712072E8E098F0AAEA6
:100594000FAF107C007D641201E5ED4C700312076F
:1005A40074AE0FAF107C007D641201E5ED4C70B1A8
:0505B4001204CF80AC31
:100625008F218D228B23C2AFE4FD7F8E1208D1E589
:100635002375F00A84C454F0FFE52375F00A84E5B8
:10064500F04FFD7F801208D1E52275F00A84C4546D
:10065500F0FFE52275F00A84E5F04FFD7F82120870
:10066500D1E52175F00A84C454F0FFE52175F00A3F
:1006750084E5F04FFD7F841208D17D807F8E1208BE
:04068500D1D2AF22FD
:10077400E4F521C2AF7F811207B8EFC4540F75F0BE
:100784000AA4FEEF540F2EF51D7F831207B8EFC4A1
:10079400540F75F00AA4FEEF540F2EF51F7F851237
:1007A40007B8EFC4540F75F00AA4FEEF540F2EF5EA
:0307B4001ED2AFA3
:0107B700221F
:1008E500E4FEC297EF1392A3EFC313FFD2970EBE98
:0208F50008F009
:0108F70022DE
:1008D100C29300C29700D293001208E5AF05120837
:0408E100E5C29322B7
:1007B800E4FDC29300C29700D293001208E5E4FF5B
:1007C800C297EDC313FD30A303430580D2970FBF33
:1007D80008EEC29300C29700D29700C2A300D2A32A
:0307E80000AF055A
:0107EB0022EB
:10072E00C2AF1208477FCC12086E7F4412086E7F4C
:10073E00C87E001208AA1208477FCC12086E7FBE30
:10074E0012086E12088C8F2112088CD2AFEFFEE5C4
:10075E0021FFFDAC06E4120119E4FBFA7920783F83
:06076E0012000E02015210
:0408A6007F057E004C
:1008AA007C007D0C1201D3EF1FAC0670011E4C7048
:0208BA00F62224
:02086E00AB07D6
:10087000E4FAC294EB1392941208A6D294EBC31339
:0C088000FB0ABA08ED7F057E000208AA02
:10088C00E4FAC294EBC313FBD29430940343038079
:09089C001208A60ABA08EBAF032A
:0108A5002230
:10084700C200D2947F0C7E001208AAC2947F507E09
:10085700001208AAD2947F0A7E001208AAA29492D4
:06086700001208A6A20029
:01086D002268
:10000E00EC4D6011E8497017ED33EC3304600DE4EC
:10001E00FCFFFEFD22E933E8330470F80201BE1244
:10002E00018958046009E4CC248150062850090245
:10003E0001C82840030201C5C0E0EB4A7044B980F4
:10004E0006D0E0FB0201B4EF4E701CBD8008EBFF42
:10005E00EAFEE9FD80EBE98DF0A4FEE5F00200F783
:10006E00E9CDF9EAFEEBFFEF89F0A4FCE5F0CE89CD
:10007E00F0A42EFFE435F0CD89F0A42DFEE435F08A
:10008E008067EF4E7005BD80D780C3EF8BF0A4ACB8
:10009E00F0EE8BF0A42CFCE435F0F8EF8AF0A42CF3
:1000AE00E5F038FCE433CB8DF0A42CFCE5F03BF806
:1000BE00EE8AF0A42CFCE5F038F8E433CF89F0A4F6
:1000CE002CFCE5F038CF3400CE89F0A42FFFE5F0FC
:1000DE003EFEE433C98DF0A42EFEE5F039CD8AF054
:1000EE00A42FFFE5F03EFEE43DFD33D0E0FB5007CC
:1000FE000BBB000F0201C8EC2CFCEF33FFEE33FEFE
:06010E00ED33FD0201A02B
:1001140075F020800E75F010800575F0087D007E66
:10012400007F003392D530D50312023AEC334010ED
:10013400EF33FFEE33FEED33FDEC33FCD5F0ED226F
:0E014400E5F0247EA2D513CC92E7CDCEFF22AB
:10015200EDD2E7CD33EC3392D524814006E4FFFEA5
:10016200FDFC22FCE4CFCECDCC24E0501174FF8004
:10017200EDC3CC13CCCD13CDCE13CECF13CF0470A1
:07018200F030D5DE02023A65
:10018900E9D2E7C933E833F892D5EDD2E7CD33ECBC
:0701990033FC5002B2D52235
:1001A000EC30E7100FBF000C0EBE00080DBD0004C0
:1001B0000BEB6014A2D5EB13FCED92E7FD2274FF6C
:1001C000FCFDFEFF22E480F8A2D574FF13FC7D80C5
:0301D000E480EFD9
:10044F00020544E493A3F8E493A34003F68001F27A
:10045F0008DFF48029E493A3F85407240CC8C333AE
:10046F00C4540F4420C8834004F456800146F6DF7D
:10047F00E4800B010204081020408090081FE47EE6
:10048F00019360BCA3FF543F30E509541FFEE49372
:10049F00A360010ECF54C025E060A840B8E493A339
:1004AF00FAE493A3F8E493A3C8C582C8CAC583CA64
:1004BF00F0A3C8C582C8CAC583CADFE9DEE780BE1C
:0108460000B1
:1001D300EF8DF0A4A8F0CF8CF0A428CE8DF0A42E40
:0201E300FE22FA
:1001E500BC000BBE0029EF8DF084FFADF022E4CCFE
:1001F500F875F008EF2FFFEE33FEEC33FCEE9DECC7
:10020500984005FCEE9DFE0FD5F0E9E4CEFD22ED0C
:10021500F8F5F0EE8420D21CFEADF075F008EF2F56
:10022500FFED33FD4007985006D5F0F222C398FD47
:050235000FD5F0EA22E4
:0E023A00C3E49FFFE49EFEE49DFDE49CFC22D5
:10024800D083D082F8E4937012740193700DA3A345
:1002580093F8740193F5828883E473740293B5F07C
:0D026800067403936860E9A3A3A3A380D8E4
:00000001FF
