:1010230031202530367500322020202530342E32F1
:02103300660055
:09104300013701042B000000003C
:0E103500120F7C12100E120EAF120D8B80F8EF
:100F7C007580FFE5A0541F4480F5A053A01F1210EC
:100F8C004D7580F0E5A0541F4480F5A053A01F02BE
:020F9C00104DF6
:08104D007FA57E96DEFEDFFAAE
:011055002278
:100EAF00E52A702A752A01120B63E5266F5FFE8F04
:100EBF0026BE040A0537E537B40203E4F537E537F4
:0E0ECF0004F580E5A0541F4480F5A053A01F39
:010EDD0022F2
:100D8B00E52A7061752A01E5371460140470447507
:100D9B0048FF754910754A23754B0085424C802AD4
:100DAB00120EDE8E438F447548FF754910754A2A23
:100DBB00AC43AD44E41200C3E4FBFA7980784112F2
:100DCB0000218F4E8E4D8D4C8C4B7B007A007938E9
:100DDB0012063E754800754900754A2F7B007A0054
:060DEB007938120A5122C2
:03001B00020C5D77
:100C5D00C0E0C0F0C083C082C0D075D000C000C05D
:100C6D0001C002C003C004C005C006C007E52E24A4
:100C7D0001F52EE4352DF52DE4352CF52CE4352B31
:100C8D00F52B052AE52AB40A03752A000528E5285F
:100C9D0070020527FFAE27BE0109BFF406752700B8
:100CAD00752800E47FE87E03FDFCAB2EAA2DA92C50
:100CBD00A82BC312056E700AF52EF52DF52CF52B0C
:100CCD0005427B007A00792FAD29120E330529E5F7
:100CDD0029B40803752900D007D006D005D004D05B
:100CED0003D002D001D000D0D0D082D083D0F0D0AC
:020CFD00E032E3
:10100E00538EBF53890F758DFC758B17C28FD28E81
:05101E00D2ABD2AF22AD
:060A51008B458A4689472F
:100A5700E4F54CF54BE54BC394084003020B62AB3E
:100A670045AA46A947854C827583001204FF1205E3
:100A77008F0B2F200B2A2D0AC1300AC6310ACB3221
:100A87000AD0330AD5340ADA350ADF360AE4370AD8
:100A9700E9380AEE390AF3410AF8420AFD430B0224
:100AA700440B07450B0C460B11480B164C0B1B4E02
:100AB7000B20500B255500000B2F754DC0806C7512
:100AC7004DF98067754DA48062754DB0805D754D99
:100AD700998058754D928053754D82804E754DF8AB
:100AE7008049754D808044754D90803F754D888055
:100AF7003A754D838035754DC68030754DA1802B75
:100B0700754D868026754D8E8021754D89801C75A3
:100B17004DC78017754DC88012754D8C800D754D6A
:100B2700C18008754DBF8003754DFF854C82758365
:100B370000A3AB45AA46A9471204FFB42E05534D9F
:100B47007F054CAB48AA49A94A854B82758300E5C6
:0B0B57004D12053E054B054C020A5CE8
:010B62002270
:100E33007580FFE5A0541F44E0F5A053A01F740183
:100E4300A805088002C333D8FCF580E5A0541F44ED
:100E5300C0F5A053A01FAF058F827583001204FF56
:0E0E6300F580E5A0541F44E0F5A053A01F2227
:100B6300C2C4D2C2D2B5D2B4AFB07E00D2C4C2C264
:100B7300EFC4F8540FC868FFEEC454F048FEE5B064
:100B8300540FFDEF4DD2C2C2B5C4F8540FC868FF6D
:100B9300EEC454F048FEE5B0540FFDEF4DD2B5C29C
:100BA300B4C4F8540FC868FFEEC454F048FEE5B06F
:100BB300540FFDEF4DF4FFEEF4FEEF8EF01205B58A
:100BC3000C5200010C4D00020C4800040C430008B9
:100BD3000C3E00100C3900200C3400400C2F008018
:100BE3000C2A01000C2502000C2004000C1B080039
:100BF3000C1610000C1120000C0C40000C07800098
:100C030000000C57754504804E75450580497545B0
:100C1300068044754507803F754508803A75450948
:100C2300803575450A803075450B802B75450C80E2
:100C33002675450D802175450E801C75450F80175F
:100C43007545108012754511800D75451280087524
:090C530045138003E4F545AF45AB
:010C5C002275
:100F9E00D3EF9400EE940040147D6E7C00ED1D7036
:0D0FAE00011CED4C70F7EF1F70E61E80E394
:010FBB002213
:100F5900C2947B467FF0DFFED294E4FB3094117F8C
:100F6900017E00120F9E0BEBD3940540EF7F002208
:020F79007F01F6
:010F7B002253
:0C0DF100120F597F017E00120F9E7FCC74
:100DFD00E4FBFAC2940509E50970020508EF1392A8
:100E0D0094750800750906E5091509AC08700215F9
:100E1D00084C70F3D294EFC313FF0BBB00010AEB28
:050E2D0064084A70CECC
:010E3200229D
:100E71007D087C00C2940FBF0000D2940FBF000018
:100E81000FBF0000A294E433C43333335480FBE931
:100E9100C3134BF97E007F04EF1FAA0670011E4A9F
:0D0EA10070F6ED1D70011CED4C70C9AF0125
:010EAE002221
:08105600120DF17F44020DFDB3
:08105E00120DF17FBE020DFD31
:10000300E4FFFE12105612105E120E718F0A120ECA
:0600130071EFFEE50AFF9B
:0100190022C4
:040FDA007F057E0011
:100FDE00EF1FAA0670011E4A600BE4FDEDC3940CD0
:050FEE0050EE0D80F73C
:010FF30022DB
:020FBC00A90783
:100FBE00E4FBC294E9139294120FDAD294E9C313AC
:0C0FCE00F90BBB08ED7F057E00020FDE72
:100FF400E4FBC294ECC313FCD29430940343048006
:09100400120FDA0BBB08EBAF047C
:01100D0022C0
:100F0B00C200D2947F0C7E00120FDEC2947F507E03
:100F1B0000120FDED2947F0A7E00120FDEA2949293
:060F2B0000120FDAA20023
:010F3100229D
:100EDE00120F0B7FCC120FBC7F44120FBC120F0BE4
:100EEE007FCC120FBC7FBE120FBC120FF4A90712DB
:0C0EFE000FF4EFFE7C00E429FFEC3EFE48
:010F0A0022C4
:10001E0002013BEC5D046005E859047003020131F6
:10002E001200FC580460F6EC4860F2EC7004FDFE21
:10003E00FF22C860DB2481C85009C39860025006B5
:10004E000201389850CAF582E9294B4A7005AB82F5
:10005E0002012775F0007C1A7880C3EF9BEE9AEDB3
:10006E0099400DC3EF9BFFEE9AFEED99FDE842F02D
:10007E00DC23ACF0D0E0FFD0E0FED0E0FDAB822080
:10008E00E7101BEB60BAEC2CFCEF33FFEE33FEED0A
:10009E0033FD020113E803F830E705C0F075F000F8
:1000AE00EF2FFFEE33FEED33FD40B830E7C280AAEE
:1000BE0075F020800E75F010800575F0087D007EBD
:1000CE00007F003392D530D503120560EC3340101B
:1000DE00EF33FFEE33FEED33FDEC33FCD5F0ED22C6
:0E00EE00E5F0247EA2D513CC92E7CDCEFF2202
:1005E200E55C2448F8E6055C227845300702784845
:1005F200E475F00112057F0204E62000EB7F2ED2A3
:10060200008018EF540F2490D43440D4FF30040BF0
:10061200EF24BFB41A0050032461FFE55D600215A8
:100622005D0560E5607002055F30070D7845E47591
:10063200F00112057FEF02052C020F327403D2077C
:100642008003E4C207F55C8B458A468947E4F55D81
:10065200F55FF560E55D60077F2012061D80F57588
:100662005EFFC201C200C202C203C205C206C208C4
:100672001205EBFF700D3007057F0012062EAF60EA
:10068200AE5F22B4255FC2D5C2041205EBFF24D0AF
:10069200B40A00501A75F00A785D30D50508B6FF25
:1006A2000106C6A426F620D5047002D20380D924FE
:1006B200CFB41A00EF5004C2E5D20402091BD201E2
:1006C20080C6D20080C0D20280BCD2D580BAD20508
:1006D20080B47F2012061D2002077401B55D004020
:1006E200F11205E2FF12061D020656D208D206805A
:1006F200951205E2FB1205E2FA1205E2F94A4B7085
:100702000679127A0A7BFF20022EE55D602A7E00BE
:100712008E827583001204FF60060EEE655E70F035
:10072200C2D5EBC0E0EAC0E0E9C0E0EE12097BD03E
:10073200E0F9D0E0FAD0E0FB1204E6FF60AAEBC0D9
:10074200E0EAC0E0E9C0E012061DD0E02401F9D0E1
:10075200E03400FAD0E0FBE55E0460DCD55ED980CF
:1007620087D20280A212095E60F7E55E7001041270
:100772000146A95E600DE55E600914F55E120A0588
:10078200EF60F3EA30E702F404C3995077EAF42504
:100792005E0430E701E404F55E800D12095E60C17B
:1007A200EA055E255E120146EA785BF630E701E46F
:1007B200255E04D55E042005011412097BE4C0E025
:1007C200120A05785BE6601320E70714F6120605A5
:1007D200802204F6D0E014C0E07F00120605E55E38
:1007E20060071205FC155E800B3005031205FCD074
:1007F200E0020656D0E00480C512095E60A0E55E04
:1008020004120146785BEAF6E55E20050260010407
:05081200240412097B23
:1008170074FF04C0E0120A05120605E55E20050212
:1008270060031205FCD0E0B55EE87F4512060F783D
:100837005BE67F2B30E7047F2DF404C0E012061D32
:10084700D0E075F00A84C0F0120606D0E012060662
:10085700020656791080027908C206C2088008D2BB
:10086700D5790A8004790AC2D5E55E047002F55E7F
:10087700E4FAFDFEFF1205E2FC7B082001131205D6
:10088700E2FD7B1030000A1205E2FE1205E2FF7B53
:1008970020EC3382D592D55013C3E43000069FFF76
:1008A700E49EFEE42001039DFDE49CFCE4CBF8C23A
:1008B70001EC700CCFCECDCCE824F8F870F380179C
:1008C700C3EF33FFEE33FEED33FDEC33FCEB33FBCD
:1008D700994002FB0FD8E9EB300105F8D0E0C44896
:1008E700B201C0E00AEC4D4E4F78207B0070C2EA9F
:1008F700B55E0040BCC0E012097DD0F0D0E0200119
:1009070004C4C0E0C4B201C0F0120606D0F0D5F0AE
:10091700EB02065612058F06F353085A5806C44CC5
:1009270006C042085E4F08664408664906D9430870
:100937006C55079D4607FB450767470A325006C8AF
:100947002D06CC2E06EF2B06D02306ED200A1B2AF8
:10095700068848000006E7E55EB4FF03755E0612E9
:1009670005E2FC1205E2FD1205E2FE1205E2FF7840
:1009770054020175790AA2D5200314300509B9106C
:10098700020404B9080104A2D5200602500104207C
:1009970002689202B55D005034C0E07F2030031931
:1009A7007F30A20272067205500F1209D4C202C22A
:1009B70006C205C2087F30800F300503E9C0E01288
:1009C700061D300503D0E0F9D0E0B55DCC30051742
:1009D7007F30B9100C12061D7F583004077F7880CE
:1009E70003B9080312061D3002057F2D02061D7F7D
:1009F700202008F87F2B2006F322920280CF7F0069
:100A0700B4070050052454F8E6FF22286E756C6C75
:100A17002900D2011205E23001F8C201785D30D514
:100A27000108F60206882D504349581205E22403AF
:100A3700B405004001E4900A2D9312060E743A1291
:0A0A4700060ED203755D0402085A82
:1000FC00E9D2E7C933E833F892D5EDD2E7CD33EC4A
:07010C0033FC5002B2D522C2
:10011300EC30E7100FBF000C0EBE00080DBD00044D
:100123000BEB6014A2D5EB13FCED92E7FD2274FFF9
:10013300FCFDFEFF22E480F8A2D574FF13FC7D8052
:03014300E480EF66
:10014600F920E72824F950037907E4F42402FB1880
:10015600DBFDE624FB5014E9600DE4F618E604F630
:0F016600B40A08E4F6D9F57401F60A22C2D522CC
:10017500ED33EC3392D5FA602AB4FF33EDC2E77B59
:10018500FF60067A01799AE4227A0179A320D504E1
:100195007A01799E224E614E002B494E46002D492B
:1001A5004E4600E47A08F608DAFC7B00740722E87C
:1001B500C0E0ECC0E0EDC0E0EEC0E0EFC0E0EA7505
:1001C500F010A4CAABF075F04DA42BFBE435F0FCA0
:1001D500EA2410FAEB34C5FBEC34D9FCEDC2E7FF99
:1001E50075F056A4F42411C5F0F434C58FF0A42A93
:1001F500E5F03BE43CF620E7141204A6D0E0FFD07E
:10020500E0FED0E0FDD0E0FC1200218014F40412E1
:1002150004A6D0E0FFD0E0FED0E0FDD0E0FC120364
:1002250070D0E0F8E6FAEDD2E7CD33EC332482FB6B
:10023500E4C3CF33CFCE33CECD33CD33DBF37B0722
:1002450075F00A846004F6081B0AE5F0F6088FF0DD
:10025500740AA4FFACF08EF0740AA42CFEACF05026
:10026500010C8DF0740AA42CFDE435F0F608DBDEF4
:03027500740722E9
:10027800020131E86480F8E933E83360110460F082
:10028800ED33EC337009E8FCE9FDEAFEEBFF2204EC
:1002980060DED3EB9FEA9EE99DE8C2E78CF0C2F7E7
:1002A80095F0400CE8CCF8E9CDF9EACEFAEBCFFBB3
:1002B8001200FC85D0F05804700320D5B3E8047010
:1002C800075002B2D502013B92D5EC0460F7E4CCAA
:1002D800C0E0C398F8603B94186008400DD0E0FB7C
:1002E800020113E4FBFAC9FC8028E830E406E4C9FB
:1002F800FBE4CAFCE830E305E4C9CACBFCE85407D0
:100308006010F8C3E913F9EA13FAEB13FBEC13FCDA
:10031800D8F130F52FC3E49CFCEF9BFFEE9AFEED7D
:1003280099FDD0E0FBEF4E4D4C701222DB03020129
:1003380038EC2CFCEF33FFEE33FEED33FDED30E708
:10034800EB020113EF2BFFEE3AFEED39FDD0E0FB97
:1003580050130BBB000302013BED13FDEE13FEEF40
:0803680013FFEC13FC0201136A
:10037000EC4D6011E8497017ED33EC3304600DE487
:10038000FCFFFEFD22E933E8330470F8020131126C
:1003900000FC58046009E4CC24815006285009026E
:1003A000013B284003020138C0E0EB4A7044B980A9
:1003B00006D0E0FB020127EF4E701CBD8008EBFF6A
:1003C000EAFEE9FD80EBE98DF0A4FEE5F0020459B8
:1003D000E9CDF9EAFEEBFFEF89F0A4FCE5F0CE8968
:1003E000F0A42EFFE435F0CD89F0A42DFEE435F025
:1003F0008067EF4E7005BD80D780C3EF8BF0A4AC53
:10040000F0EE8BF0A42CFCE435F0F8EF8AF0A42C8D
:10041000E5F038FCE433CB8DF0A42CFCE5F03BF8A0
:10042000EE8AF0A42CFCE5F038F8E433CF89F0A490
:100430002CFCE5F038CF3400CE89F0A42FFFE5F096
:100440003EFEE433C98DF0A42EFEE5F039CD8AF0EE
:10045000A42FFFE5F03EFEE43DFD33D0E0FB500766
:100460000BBB000F02013BEC2CFCEF33FFEE33FE25
:06047000ED33FD02011353
:100476003F8000004120000042C80000447A00008E
:10048600461C400047C35000497424004B18968010
:100496004CBEBC205A0E1BCA6753C21C749DC5AE07
:1004A600FB60065407601C23231204D4EB54386007
:1004B600091204C01204CF120370ECF8EDF9EEFA3B
:1004C600EFCB22EB1204CF80F1543803241C9004A6
:1004D60076FE93FC0EEE93FD0EEE930ECE93FF2268
:03000000020CFFF0
:0C0CFF00787FE4F6D8FD758160020D4698
:1004E600BB010689828A83E0225002E722BBFE0214
:0904F600E32289828A83E4932247
:1004FF00BB010CE58229F582E5833AF583E02250B2
:10050F0006E92582F8E622BBFE06E92582F8E222FB
:0D051F00E58229F582E5833AF583E4932215
:10052C00BB010689828A83F0225002F722BBFE01AE
:02053C00F322A8
:10053E00F8BB010DE58229F582E5833AF583E8F0F3
:10054E00225006E92582C8F622BBFE05E92582C89F
:02055E00F22287
:0E056000C3E49FFFE49EFEE49DFDE49CFC22AC
:10056E00EB9FF5F0EA9E42F0E99D42F0E89C45F0E3
:01057E00225A
:10057F00FAE6FB0808E6F925F0F618E6CA3AF6227D
:10058F00D083D082F8E4937012740193700DA3A3FB
:10059F0093F8740193F5828883E47374029368600F
:0605AF00EFA3A3A380DF0F
:1005B500D083D082F8E4937012740193700DA3A3D5
:1005C50093F8740193F5828883E473740293B5F00C
:0D05D500067403936860E9A3A3A3A380D874
:100F3200EFB40A07740D120F3D740A309811A89984
:100F4200B8130CC2983098FDA899C298B811F6301F
:070F520099FDC299F59922F7
:100D0B00021035E493A3F8E493A34003F68001F2B9
:100D1B0008DFF48029E493A3F85407240CC8C333E9
:100D2B00C4540F4420C8834004F456800146F6DFB8
:100D3B00E4800B0102040810204080901043E47EF5
:100D4B00019360BCA3FF543F30E509541FFEE493AD
:100D5B00A360010ECF54C025E060A840B8E493A374
:100D6B00FAE493A3F8E493A3C8C582C8CAC583CA9F
:100D7B00F0A3C8C582C8CAC583CADFE9DEE780BE57
:01104C0000A3
:00000001FF
