:030018002564005C
:08073900023100000233000050
:1006A2001206FE120720120003750BFF750C00756F
:1006B2000D1885220E85230F7B007A0079351200F2
:1006C2007A750B00750C00750D297B007A0079355F
:0506D20012037A80D440
:1006FE007580FFE5A0541F4480F5A053A01F12077C
:10070E00307580F0E5A0541F4480F5A053A01F0261
:02071E000730A2
:080730007FA57E96DEFEDFFAD4
:01073800229E
:03001B0002053C9F
:10053C00C0E0C0F0C083C082C0D075D000C000C085
:10054C0001C002C003C004C005C006C0070532E5E7
:10055C00327002053164E87004E5316403703DAF1C
:10056C008CEFFEAD8A7C00E42DF523EC3EF5227574
:10057C008C00758A00753100753200053F8534801A
:10058C00E5A0541F4480F5A053A01F0534E534703A
:10059C00020533F445337004F533F5347B007A00EF
:1005AC007929AD241206640524E524B408037524C6
:1005BC0000D007D006D005D004D003D002D001D093
:0C05CC0000D0D0D082D083D0F0D0E0323C
:10072000538E7F438905E4F58AF58CC28DD28C22E5
:10000300538EBF53890F758DFC758B17C28FD28E9C
:05001300D2ABD2AF22C8
:06037A008B088A09890AC4
:10038000E4F50FF50EE50EC39408400302048BABB1
:1003900008AA09A90A850F8275830012048C120429
:1003A000DB04582004532D03EA3003EF3103F43209
:1003B00003F93303FE34040335040836040D37040F
:1003C0001238041739041C41042142042643042B2B
:1003D00044043045043546043A48043F4C04444E36
:1003E000044950044E55000004587510C0806C75C7
:1003F00010F980677510A480627510B0805D75106B
:100400009980587510928053751082804E7510F83F
:1004100080497510808044751090803F75108880E9
:100420003A75108380357510C680307510A1802B09
:10043000751086802675108E8021751089801C7538
:1004400010C780177510C8801275108C800D75103C
:10045000C180087510BF80037510FF850F827583FA
:1004600000A3AB08AA09A90A12048CB42E055310E4
:100470007F050FAB0BAA0CA90D850E82758300E5D5
:0B048000101204B9050E050F020385E1
:01048B00224E
:100664007580FFE5A0541F44E0F5A053A01F74015A
:10067400A805088002C333D8FCF580E5A0541F44C4
:10068400C0F5A053A01FAF058F8275830012048CA0
:0E069400F580E5A0541F44E0F5A053A01F22FE
:030000000205D81E
:0C05D800787FE4F6D8FD75813F02061F15
:10048C00BB010CE58229F582E5833AF583E0225025
:10049C0006E92582F8E622BBFE06E92582F8E2226F
:0D04AC00E58229F582E5833AF583E4932289
:1004B900F8BB010DE58229F582E5833AF583E8F079
:1004C900225006E92582C8F622BBFE05E92582C825
:0204D900F2220D
:1004DB00D083D082F8E4937012740193700DA3A3B0
:1004EB0093F8740193F5828883E4737402936860C4
:0604FB00EFA3A3A380DFC4
:10001E00E517240BF8E60517227808300702780B4F
:10002E00E475F00112052C0205012000EB7F2ED2A3
:10003E00008018EF540F2490D43440D4FF30040BBA
:10004E00EF24BFB41A0050032461FFE518600215B7
:10005E0018051BE51B7002051A30070D7808E475AC
:10006E00F00112052CEF02051A0206D77403D2070F
:10007E008003E4C207F5178B088A09890AE4F5188C
:10008E00F51AF51BE51860077F2012005980F575EB
:10009E0019FFC201C200C202C203C205C206C208D3
:1000AE00120027FF700D3007057F0012006AAF1B8C
:1000BE00AE1A22B4255FC2D5C204120027FF24D087
:1000CE00B40A00501A75F00A781830D50508B6FF34
:1000DE000106C6A426F620D5047002D20380D924C8
:1000EE00CFB41A00EF5004C2E5D20402026AD20164
:1000FE0080C6D20080C0D20280BCD2D580BAD205D2
:10010E0080B47F201200592002077401B5180040F8
:10011E00F112001EFF120059020092D208D2068080
:10012E009512001EFB12001EFA12001EF94A4B70A9
:10013E0006793B7A037BFF20022EE518602A7E00AB
:10014E008E8275830012048C60060EEE651970F0B7
:10015E00C2D5EBC0E0EAC0E0E9C0E0EE1202B1D0D9
:10016E00E0F9D0E0FAD0E0FB120501FF60AAEBC087
:10017E00E0EAC0E0E9C0E0120059D0E02401F9D075
:10018E00E03400FAD0E0FBE5190460DCD519D98023
:10019E00877BFF7A0279ADD202809C79108002793A
:1001AE0008C206C2088008D2D5790A8004790AC22C
:1001BE00D5E519047002F519E4FAFDFEFF12001ED2
:1001CE00FC7B0820011312001EFD7B1030000A126A
:1001DE00001EFE12001EFF7B20EC3382D592D550FE
:1001EE0013C3E43000069FFFE49EFEE42001039D4E
:1001FE00FDE49CFCE4CBF8C201EC700CCFCECDCC70
:10020E00E824F8F870F38017C3EF33FFEE33FEEDFA
:10021E0033FDEC33FCEB33FB994002FB0FD8E9EBDB
:10022E00300105F8D0E0C448B201C0E00AEC4D4EF2
:10023E004F78207B0070C2EAB5190040BCC0E012B6
:10024E0002B3D0F0D0E0200104C4C0E0C4B201C0BB
:10025E00F0120042D0F0D5F0EB0200921204DB0156
:10026E002F5301A95801004C00FC4201AD4F01B5BE
:0F027E004401B54901154301BB55019F46019F3E
:10028D0045019F47035B5001042D01082E012B2BC7
:10029D00010C2301292003442A00C4480000012336
:1002AD003F3F3F00790AA2D5200314300509B9104C
:1002BD00020404B9080104A2D5200602500104204D
:1002CD0002689202B518005034C0E07F2030031947
:1002DD007F30A20272067205500F12030AC202C2CB
:1002ED0006C205C2087F30800F300503E9C0E01259
:1002FD000059300503D0E0F9D0E0B518CC30051722
:10030D007F30B9100C1200597F583004077F788068
:10031D0003B908031200593002057F2D0200597FE1
:10032D00202008F87F2B2006F322920280CF286E22
:10033D00756C6C2900D20112001E3001F8C20178D3
:10034D001830D50108F60200C42D5043495812004B
:10035D001E2403B405004001E49003569312004A95
:0D036D00743A12004AD2037518040201A967
:1005E4000206A2E493A3F8E493A34003F68001F285
:1005F40008DFF48029E493A3F85407240CC8C33318
:10060400C4540F4420C8834004F456800146F6DFE6
:10061400E4800B0102040810204080900739E47E36
:10062400019360BCA3FF543F30E509541FFEE493DB
:10063400A360010ECF54C025E060A840B8E493A3A2
:10064400FAE493A3F8E493A3C8C582C8CAC583CACD
:10065400F0A3C8C582C8CAC583CADFE9DEE780BE85
:0107410000B7
:10050100BB010689828A83E0225002E722BBFE02F8
:09051100E32289828A83E493222B
:10051A00BB010689828A83F0225002F722BBFE01C0
:02052A00F322BA
:10052C00FAE6FB0808E6F925F0F618E6CA3AF622D0
:1006D700EFB40A07740D1206E2740A309811A8994C
:1006E700B8130CC2983098FDA899C298B811F63083
:0706F70099FDC299F599225B
:00000001FF
