:050DA300252E32750051
:080D9A00022F000002310000ED
:0B0D8600120D53120003120D7580FEC9
:100D53007580FFE5A0541F4480F5A053A01F120D1A
:100D6300917580F0E5A0541F4480F5A053A01F02A5
:020D73000D91E0
:080D91007FA57E96DEFEDFFA6D
:010D99002237
:03001B00020B5C79
:100B5C00C0E0C0F0C083C082C0D075D000C000C05F
:100B6C0001C002C003C004C005C006C0070530E5C3
:100B7C00307002052F64E87004E52F6403704EF5A5
:100B8C002FF530053D853280E5A0541F4480F5A03B
:100B9C0053A01F0532E53270020531F44531700463
:100BAC00F531F532120C958F447541FF75420D7578
:100BBC0043A37B007A0079331206377541007542E6
:100BCC00007543277B007A007933120A4A7B007A3E
:100BDC00007927AD22120CEE0522E522B40803752C
:100BEC002200D007D006D005D004D003D002D0010B
:0D0BFC00D000D0D0D082D083D0F0D0E03235
:10000300538EBF53890F758DFC758B17C28FD28E9C
:05001300D2ABD2AF22C8
:060A4A008B3E8A3F89404B
:100A5000E4F545F544E544C394084003020B5BAB61
:100A60003EAA3FA9408545827583001205361205CE
:100A7000B50B28200B232D0ABA300ABF310AC43225
:100A80000AC9330ACE340AD3350AD8360ADD370A02
:100A9000E2380AE7390AEC410AF1420AF6430AFB56
:100AA000440B00450B05460B0A480B0F4C0B144E2C
:100AB0000B19500B1E5500000B287546C0806C7535
:100AC00046F980677546A480627546B0805D7546BC
:100AD0009980587546928053754682804E7546F8C7
:100AE00080497546808044754690803F7546888071
:100AF0003A75468380357546C680307546A1802B91
:100B0000754686802675468E8021754689801C75BF
:100B100046C780177546C8801275468C800D75468D
:100B2000C180087546BF80037546FF854582758381
:100B300000A3AB3EAA3FA940120536B42E0553468A
:100B40007F0545AB41AA42A943854482758300E5F0
:0B0B50004612057505440545020A55D4
:010B5B002277
:100CEE007580FFE5A0541F44E0F5A053A01F7401CA
:100CFE00A805088002C333D8FCF580E5A0541F4434
:100D0E00C0F5A053A01FAF058F8275830012053664
:0E0D1E00F580E5A0541F44E0F5A053A01F226D
:100D7500538E7F5389F0758AF4758CFFC28DC28CB2
:010D8500224B
:100C95007E0AC290758AF4758CFFD28CAD061EED66
:100CA500600C308DFDA290B39290C28D80EEC28C07
:100CB500E4F58AF58CD28C309103308DFAC28C30F4
:100CC5008D06C28D7FFF8020AF8CEFFEAD8A7C0044
:100CD500E42DFDEC3EFCE41201297B967A43798BE9
:080CE500783C12001E120162AE
:010CED0022E4
:10001E00EC4D6011E8497017ED33EC3304600DE4DC
:10002E00FCFFFEFD22E933E8330470F80201CE1224
:10003E00019958046009E4CC248150062850090225
:10004E0001D82840030201D5C0E0EB4A7044B980C4
:10005E0006D0E0FB0201C4EF4E701CBD8008EBFF22
:10006E00EAFEE9FD80EBE98DF0A4FEE5F002010762
:10007E00E9CDF9EAFEEBFFEF89F0A4FCE5F0CE89BD
:10008E00F0A42EFFE435F0CD89F0A42DFEE435F07A
:10009E008067EF4E7005BD80D780C3EF8BF0A4ACA8
:1000AE00F0EE8BF0A42CFCE435F0F8EF8AF0A42CE3
:1000BE00E5F038FCE433CB8DF0A42CFCE5F03BF8F6
:1000CE00EE8AF0A42CFCE5F038F8E433CF89F0A4E6
:1000DE002CFCE5F038CF3400CE89F0A42FFFE5F0EC
:1000EE003EFEE433C98DF0A42EFEE5F039CD8AF044
:1000FE00A42FFFE5F03EFEE43DFD33D0E0FB5007BC
:10010E000BBB000F0201D8EC2CFCEF33FFEE33FEDD
:06011E00ED33FD0201B00B
:1001240075F020800E75F010800575F0087D007E56
:10013400007F003392D530D503120597EC3340107D
:10014400EF33FFEE33FEED33FDEC33FCD5F0ED225F
:0E015400E5F0247EA2D513CC92E7CDCEFF229B
:10016200EDD2E7CD33EC3392D524814006E4FFFE95
:10017200FDFC22FCE4CFCECDCC24E0501174FF80F4
:10018200EDC3CC13CCCD13CDCE13CECF13CF047091
:07019200F030D5DE020597F5
:1005DB00E5552441F8E6055522783E30070278416F
:1005EB00E475F0011205A502051D2000EB7F2ED24C
:1005FB00008018EF540F2490D43440D4FF30040BF8
:10060B00EF24BFB41A0050032461FFE556600215B6
:10061B00560559E5597002055830070D783EE475BB
:10062B00F0011205A5EF020563020D2C7403D2072E
:10063B008003E4C207F5558B3E8A3F8940E4F556AB
:10064B00F558F559E55660077F2012061680F575AB
:10065B0057FFC201C200C202C203C205C206C208D2
:10066B001205E4FF700D3007057F00120627AF5906
:10067B00AE5822B4255FC2D5C2041205E4FF24D0C4
:10068B00B40A00501A75F00A785630D50508B6FF33
:10069B000106C6A426F620D5047002D20380D92405
:1006AB00CFB41A00EF5004C2E5D204020914D201F0
:1006BB0080C6D20080C0D20280BCD2D580BAD2050F
:1006CB0080B47F201206162002077401B556004035
:1006DB00F11205DBFF12061602064FD208D2068076
:1006EB00951205DBFB1205DBFA1205DBF94A4B70A1
:1006FB0006790B7A0A7BFF20022EE556602A7E00D4
:10070B008E8275830012053660060EEE655770F00B
:10071B00C2D5EBC0E0EAC0E0E9C0E0EE120974D04C
:10072B00E0F9D0E0FAD0E0FB12051DFF60AAEBC0A8
:10073B00E0EAC0E0E9C0E0120616D0E02401F9D0EF
:10074B00E03400FAD0E0FBE5570460DCD557D980E4
:10075B0087D20280A212095760F7E5577001041285
:10076B0001E3A957600DE557600914F5571209FE0F
:10077B00EF60F3EA30E702F404C3995077EAF4250B
:10078B00570430E701E404F557800D12095760C197
:10079B00EA055725571201E3EA7854F630E701E4EE
:1007AB00255704D5570420050114120974E4C0E041
:1007BB001209FE7854E6601320E70714F61205FEC3
:1007CB00802204F6D0E014C0E07F001205FEE5574E
:1007DB0060071205F51557800B3005031205F5D090
:1007EB00E002064FD0E00480C512095760A0E55720
:1007FB00041201E37854EAF6E55720050260010480
:05080B00240412097431
:1008100074FF04C0E01209FE1205FEE55720050230
:1008200060031205F5D0E0B557E87F451206087859
:1008300054E67F2B30E7047F2DF404C0E012061647
:10084000D0E075F00A84C0F01205FFD0E01205FF79
:1008500002064F791080027908C206C2088008D2C9
:10086000D5790A8004790AC2D5E557047002F55794
:10087000E4FAFDFEFF1205DBFC7B082001131205E4
:10088000DBFD7B1030000A1205DBFE1205DBFF7B6F
:1008900020EC3382D592D55013C3E43000069FFF7D
:1008A000E49EFEE42001039DFDE49CFCE4CBF8C241
:1008B00001EC700CCFCECDCCE824F8F870F38017A3
:1008C000C3EF33FFEE33FEED33FDEC33FCEB33FBD4
:1008D000994002FB0FD8E9EB300105F8D0E0C4489D
:1008E000B201C0E00AEC4D4E4F78207B0070C2EAA6
:1008F000B5570040BCC0E0120976D0F0D0E020012E
:1009000004C4C0E0C4B201C0F01205FFD0F0D5F0BD
:10091000EB02064F1205B506EC5308535806BD4CC2
:1009200006B94208574F085F44085F4906D243089A
:10093000655507964607F4450760470A2B5006C1E0
:100940002D06C52E06E82B06C92306E6200A142A22
:10095000068148000006E0E557B4FF03755706120C
:1009600005DBFC1205DBFD1205DBFE1205DBFF7863
:100970004D020212790AA2D5200314300509B910DC
:10098000020404B9080104A2D52006025001042083
:1009900002689202B556005034C0E07F203003193F
:1009A0007F30A20272067205500F1209CDC202C238
:1009B00006C205C2087F30800F300503E9C0E0128F
:1009C0000616300503D0E0F9D0E0B556CC30051757
:1009D0007F30B9100C1206167F583004077F7880DC
:1009E00003B908031206163002057F2D0206167F92
:1009F000202008F87F2B2006F322920280CF7F0070
:100A0000B407005005244DF8E6FF22286E756C6C83
:100A10002900D2011205DB3001F8C201785630D529
:100A20000108F60206812D504349581205DB2403C4
:100A3000B405004001E4900A2693120607743A12A6
:0A0A40000607D2037556040208539E
:10019900E9D2E7C933E833F892D5EDD2E7CD33ECAC
:0701A90033FC5002B2D52225
:1001B000EC30E7100FBF000C0EBE00080DBD0004B0
:1001C0000BEB6014A2D5EB13FCED92E7FD2274FF5C
:1001D000FCFDFEFF22E480F8A2D574FF13FC7D80B5
:0301E000E480EFC9
:1001E300F920E72824F950037907E4F42402FB18E3
:1001F300DBFDE624FB5014E9600DE4F618E604F693
:0F020300B40A08E4F6D9F57401F60A22C2D5222E
:10021200ED33EC3392D5FA602AB4FF33EDC2E77BBB
:10022200FF60067A027937E4227A02794020D50407
:100232007A02793B224E614E002B494E46002D49EF
:100242004E4600E47A08F608DAFC7B00740722E8DE
:10025200C0E0ECC0E0EDC0E0EEC0E0EFC0E0EA7567
:10026200F010A4CAABF075F04DA42BFBE435F0FC02
:10027200EA2410FAEB34C5FBEC34D9FCEDC2E7FFFB
:1002820075F056A4F42411C5F0F434C58FF0A42AF5
:10029200E5F03BE43CF620E7141204DDD0E0FFD0A9
:1002A200E0FED0E0FDD0E0FC1204108014F4041251
:1002B20004DDD0E0FFD0E0FED0E0FDD0E0FC120093
:1002C2001ED0E0F8E6FAEDD2E7CD33EC332482FB20
:1002D200E4C3CF33CFCE33CECD33CD33DBF37B0785
:1002E20075F00A846004F6081B0AE5F0F6088FF040
:1002F200740AA4FFACF08EF0740AA42CFEACF05089
:10030200010C8DF0740AA42CFDE435F0F608DBDE56
:030312007407224B
:100315000201CEE86480F8E933E83360110460F047
:10032500ED33EC337009E8FCE9FDEAFEEBFF22044E
:1003350060DED3EB9FEA9EE99DE8C2E78CF0C2F749
:1003450095F0400CE8CCF8E9CDF9EACEFAEBCFFB15
:1003550012019985D0F05804700320D5B3E80470D4
:10036500075002B2D50201D892D5EC0460F7E4CC6F
:10037500C0E0C398F8603B94186008400DD0E0FBDE
:100385000201B0E4FBFAC9FC8028E830E406E4C9C0
:10039500FBE4CAFCE830E305E4C9CACBFCE8540732
:1003A5006010F8C3E913F9EA13FAEB13FBEC13FC3D
:1003B500D8F130F52FC3E49CFCEF9BFFEE9AFEEDE0
:1003C50099FDD0E0FBEF4E4D4C701222DB0302018C
:1003D500D5EC2CFCEF33FFEE33FEED33FDED30E7CE
:1003E500EB0201B0EF2BFFEE3AFEED39FDD0E0FB5D
:1003F50050130BBB00030201D8ED13FDEE13FEEF06
:0804050013FFEC13FC0201B02F
:10040D000201D8EC5D046005E8590470030201CEC9
:10041D00120199580460F6EC4860F2EC7004FDFE90
:10042D00FF22C860DB2481C85009C39860025006C2
:10043D000201D59850CAF582E9294B4A7005AB8265
:10044D000201C475F0007C1A7880C3EF9BEE9AED23
:10045D0099400DC3EF9BFFEE9AFEED99FDE842F03A
:10046D00DC23ACF0D0E0FFD0E0FED0E0FDAB82208D
:10047D00E7101BEB60BAEC2CFCEF33FFEE33FEED17
:10048D0033FD0201B0E803F830E705C0F075F00068
:10049D00EF2FFFEE33FEED33FD40B830E7C280AAFB
:1004AD003F8000004120000042C80000447A000057
:1004BD00461C400047C35000497424004B189680D9
:1004CD004CBEBC205A0E1BCA6753C21C749DC5AED0
:1004DD00FB60065407601C232312050BEB54386098
:1004ED00091204F712050612001EECF8EDF9EEFAEA
:1004FD00EFCB22EB12050680F1543803241C900437
:10050D00ADFE93FC0EEE93FD0EEE930ECE93FF22F9
:03000000020C09E6
:0C0C0900787FE4F6D8FD758159020C508C
:10051D00BB010689828A83E0225002E722BBFE02DC
:09052D00E32289828A83E493220F
:10053600BB010CE58229F582E5833AF583E022507A
:1005460006E92582F8E622BBFE06E92582F8E222C4
:0D055600E58229F582E5833AF583E49322DE
:10056300BB010689828A83F0225002F722BBFE0177
:02057300F32271
:10057500F8BB010DE58229F582E5833AF583E8F0BC
:10058500225006E92582C8F622BBFE05E92582C868
:02059500F22250
:0E059700C3E49FFFE49EFEE49DFDE49CFC2275
:1005A500FAE6FB0808E6F925F0F618E6CA3AF62257
:1005B500D083D082F8E4937012740193700DA3A3D5
:1005C50093F8740193F5828883E4737402936860E9
:0605D500EFA3A3A380DFE9
:100D2C00EFB40A07740D120D37740A309811A89994
:100D3C00B8130CC2983098FDA899C298B811F63027
:070D4C0099FDC299F59922FF
:100C1500020D86E493A3F8E493A34003F68001F262
:100C250008DFF48029E493A3F85407240CC8C333E0
:100C3500C4540F4420C8834004F456800146F6DFAF
:100C4500E4800B0102040810204080900D9AE47E98
:100C5500019360BCA3FF543F30E509541FFEE493A4
:100C6500A360010ECF54C025E060A840B8E493A36B
:100C7500FAE493A3F8E493A3C8C582C8CAC583CA96
:100C8500F0A3C8C582C8CAC583CADFE9DEE780BE4E
:010DA2000050
:00000001FF
