:0300000002000EED
:0C000E00787FE4F6D8FD758113020055E0
:100137003F065B4F666D7D077F6F777C395E797110
:100147000040761E7038375C733E783D6750376ED7
:10015700BF86DBCFE6EDFD87FFEF460102040810FF
:03016700204080B5
:10017F0002120000080A0000000000000000010940
:04018F000001080063
:10016A00538E7F5389F0758A18758CFCC28DD28C98
:05017A00D2A9D2AF2262
:03000B0002009A56
:10009A00C0E0C083C082C0D075D000C000C006C016
:1000AA00070513E513AE127002051214FFBE030C06
:1000BA00BFE809750901751200751300E50890017A
:1000CA006293F58075A0C075A000740A2508F8E649
:1000DA0090013793F4F58075A0E075A0000508E556
:1000EA0008B40803750800D007D006D000D0D0D0D5
:0600FA0082D083D0E03249
:10010000E4FF12016AE50960FCE4F509740A2FF8BE
:10011000A607EF24075407240AF8E4F604A8070802
:100120008002C333D8FCF58075A080E4F5A00FEF02
:07013000B408D2E4FF80CE09
:10001A00020100E493A3F8E493A34003F68001F2FB
:10002A0008DFF48029E493A3F85407240CC8C333E7
:10003A00C4540F4420C8834004F456800146F6DFB6
:10004A00E4800B010204081020408090017FE47EC6
:10005A00019360BCA3FF543F30E509541FFEE493AB
:10006A00A360010ECF54C025E060A840B8E493A372
:10007A00FAE493A3F8E493A3C8C582C8CAC583CA9D
:10008A00F0A3C8C582C8CAC583CADFE9DEE780BE55
:01019300006B
:00000001FF
