:0707AE00253038750D0A002B
:03001E000140009E
:1006B00012075912077B120790750BFF750C07750F
:1006C0000DAE750E0085400F7B007A007934120064
:1006D00082750B00750C00750D2A7B007A00793449
:0806E0001203821206E880D12A
:100759007580FFE5A0541F4480F5A053A01F120720
:10076900A57580F0E5A0541F4480F5A053A01F0291
:0207790007A5D2
:0807A5007FA57E96DEFEDFFA5F
:0107AD002229
:1006E800E5246540600C8540247B007A007934124B
:1006F8000003E522B4020FE53275F00AA42533247D
:07070800F0F540E4F52222A8
:030023000207369B
:10073600C0E0C0D075D000C000C00730980CAF2212
:10074600052274322FF8A699C298D007D000D0D0CF
:03075600D0E032BE
:03001B0002055586
:10055500C0E0C0F0C083C082C0D075D000C000C06C
:1005650001C002C003C004C005C006C007E52924B8
:1005750001F529E43528F528E43527F527E435265E
:10058500F526E47FE87E03FDFCAB29AA28A927A868
:1005950026C31204FC701AF529F528F527F526055A
:1005A500400525852580E5A0541F4480F5A053A06E
:1005B5001F7B007A00792AAD231206720523E523F5
:1005C500B40803752300D007D006D005D004D003A6
:1005D500D002D001D000D0D0D082D083D0F0D0E0EE
:0105E50032E3
:10077B00538EBF53890F758DFC758B17C28FD28E1D
:05078B00D2ABD2AF2249
:060382008B088A09890ABC
:10038800E4F50FF50EE50EC394084003020493ABA1
:1003980008AA09A90A850F827583001204AD1205FF
:1003A8000D046020045B2D03F23003F73103FC32A7
:1003B800040133040634040B3504103604153704DD
:1003C8001A38041F39042441042942042E430433F3
:1003D80044043845043D4604424804474C044C4E06
:1003E800045150045655000004607510C0806C75A7
:1003F80010F980677510A480627510B0805D751063
:100408009980587510928053751082804E7510F837
:1004180080497510808044751090803F75108880E1
:100428003A75108380357510C680307510A1802B01
:10043800751086802675108E8021751089801C7530
:1004480010C780177510C8801275108C800D751034
:10045800C180087510BF80037510FF850F827583F2
:1004680000A3AB08AA09A90A1204ADB42E055310BB
:100478007F050FAB0BAA0CA90D850E82758300E5CD
:0B048800101204DA050E050F02038DB0
:010493002246
:100672007580FFE5A0541F44E0F5A053A01F74014C
:10068200A805088002C333D8FCF580E5A0541F44B6
:10069200C0F5A053A01FAF058F827583001204AD71
:0E06A200F580E5A0541F44E0F5A053A01F22F0
:10079000759850438E01438E0475D78F75D6FD43EF
:0507A0008E10D2AC2216
:100003001204946010F5993099FDC299740129F98D
:06001300E43AFA80EB2242
:030000000205E610
:0C05E600787FE4F6D8FD75814002062DF8
:10049400BB010689828A83E0225002E722BBFE0266
:0904A400E32289828A83E4932299
:1004AD00BB010CE58229F582E5833AF583E0225004
:1004BD0006E92582F8E622BBFE06E92582F8E2224E
:0D04CD00E58229F582E5833AF583E4932268
:1004DA00F8BB010DE58229F582E5833AF583E8F058
:1004EA00225006E92582C8F622BBFE05E92582C804
:0204FA00F222EC
:1004FC00EB9FF5F0EA9E42F0E99D42F0E89C45F056
:01050C0022CC
:10050D00D083D082F8E4937012740193700DA3A37D
:10051D0093F8740193F5828883E473740293686091
:06052D00EFA3A3A380DF91
:10002600E517240BF8E60517227808300702780B47
:10003600E475F0011205450204942000EB7F2ED2F0
:10004600008018EF540F2490D43440D4FF30040BB2
:10005600EF24BFB41A0050032461FFE518600215AF
:1000660018051BE51B7002051A30070D7808E475A4
:10007600F001120545EF02053302070F7403D2079C
:100086008003E4C207F5178B088A09890AE4F51884
:10009600F51AF51BE51860077F2012006180F575DB
:1000A60019FFC201C200C202C203C205C206C208CB
:1000B60012002FFF700D3007057F00120072AF1B74
:1000C600AE1A22B4255FC2D5C20412002FFF24D077
:1000D600B40A00501A75F00A781830D50508B6FF2C
:1000E6000106C6A426F620D5047002D20380D924C0
:1000F600CFB41A00EF5004C2E5D204020272D20154
:1001060080C6D20080C0D20280BCD2D580BAD205C9
:1001160080B47F201200612002077401B5180040E8
:10012600F1120026FF12006102009AD208D2068060
:1001360095120026FB120026FA120026F94A4B7089
:100146000679437A037BFF20022EE518602A7E009B
:100156008E827583001204AD60060EEE651970F08E
:10016600C2D5EBC0E0EAC0E0E9C0E0EE1202B9D0C9
:10017600E0F9D0E0FAD0E0FB120494FF60AAEBC0ED
:10018600E0EAC0E0E9C0E0120061D0E02401F9D065
:10019600E03400FAD0E0FBE5190460DCD519D9801B
:1001A600877BFF7A0279B5D202809C79108002792A
:1001B60008C206C2088008D2D5790A8004790AC224
:1001C600D5E519047002F519E4FAFDFEFF120026C2
:1001D600FC7B08200113120026FD7B1030000A125A
:1001E6000026FE120026FF7B20EC3382D592D550E6
:1001F60013C3E43000069FFFE49EFEE42001039D46
:10020600FDE49CFCE4CBF8C201EC700CCFCECDCC67
:10021600E824F8F870F38017C3EF33FFEE33FEEDF2
:1002260033FDEC33FCEB33FB994002FB0FD8E9EBD3
:10023600300105F8D0E0C448B201C0E00AEC4D4EEA
:100246004F78207B0070C2EAB5190040BCC0E012AE
:1002560002BBD0F0D0E0200104C4C0E0C4B201C0AB
:10026600F012004AD0F0D5F0EB02009A12050D010B
:10027600375301B15801084C01044201B54F01BD85
:0F0286004401BD49011D4301C35501A74601A70E
:100295004501A747036350010C2D01102E01332B97
:1002A500011423013120034C2A00CC480000012B06
:1002B5003F3F3F00790AA2D5200314300509B91044
:1002C500020404B9080104A2D52006025001042045
:1002D50002689202B518005034C0E07F203003193F
:1002E5007F30A20272067205500F120312C202C2BB
:1002F50006C205C2087F30800F300503E9C0E01251
:100305000061300503D0E0F9D0E0B518CC30051711
:100315007F30B9100C1200617F583004077F788058
:1003250003B908031200613002057F2D0200617FC9
:10033500202008F87F2B2006F322920280CF286E1A
:10034500756C6C2900D2011200263001F8C20178C3
:100355001830D50108F60200CC2D5043495812003B
:10036500262403B405004001E490035E9312005275
:0D037500743A120052D2037518040201B14F
:1005F2000206B0E493A3F8E493A34003F68001F269
:1006020008DFF48029E493A3F85407240CC8C33309
:10061200C4540F4420C8834004F456800146F6DFD8
:10062200E4800B010204081020408090001EE47E4A
:10063200019360BCA3FF543F30E509541FFEE493CD
:10064200A360010ECF54C025E060A840B8E493A394
:10065200FAE493A3F8E493A3C8C582C8CAC583CABF
:10066200F0A3C8C582C8CAC583CADFE9DEE780BE77
:0100210000DE
:10053300BB010689828A83F0225002F722BBFE01A7
:02054300F322A1
:10054500FAE6FB0808E6F925F0F618E6CA3AF622B7
:10070F00EFB40A07740D12071A740A309811A899DA
:10071F00B8130CC2983098FDA899C298B811F6304A
:07072F0099FDC299F5992222
:00000001FF
