:0801130002080000020A0000CE
:08011C001200E812000380FE4E
:1000E8007580FFE5A0541F4480F5A053A01F12019E
:1000F8000A7580F0E5A0541F4480F5A053A01F02A4
:02010800010AEA
:08010A007FA57E96DEFEDFFA00
:0101120022CA
:03001B000200AA36
:1000AA00C0E0C0D00509E50970020508B4E82AE5F0
:1000BA0008B40325750800750900850B80E5A0546E
:1000CA001F4480F5A053A01F050BE50B7002050A1B
:0E00DA00F4450A7004F50AF50BD0D0D0E032E0
:10000300538EBF53890F758DFC758B17C28FD28E9C
:05001300D2ABD2AF22C8
:0300000002001EDD
:0C001E00787FE4F6D8FD75810B020065C8
:10002A0002011CE493A3F8E493A34003F68001F2CF
:10003A0008DFF48029E493A3F85407240CC8C333D7
:10004A00C4540F4420C8834004F456800146F6DFA6
:10005A00E4800B0102040810204080900113E47E22
:10006A00019360BCA3FF543F30E509541FFEE4939B
:10007A00A360010ECF54C025E060A840B8E493A362
:10008A00FAE493A3F8E493A3C8C582C8CAC583CA8D
:10009A00F0A3C8C582C8CAC583CADFE9DEE780BE45
:01011B0000E3
:00000001FF
